S01B000032303138303831305F70726163746963655F312E737265633B
S113000045C0000058C0000056C0000054C00000A5
S113001052C0000050C000004EC000004CC00000A0
S11300204AC0000048C0000046C0000044C00000B0
S113003042C0000040C000003EC000003CC00000C0
S11300403AC0000038C0000036C0000034C00000D0
S113005032C0000030C000002EC000002CC00000E0
S11300602AC0000028C0000026C0000024C00000F0
S113007022C0000020C000001EC000001CC0000000
S11300801AC0000018C0000016C0000011241FBED2
S1130090CFEFD0E1DEBFCDBF11E0A0E0B1E0E4E0FE
S11300A0F2E000E00BBF02C007900D92AE30B10742
S11300B0D9F75BD0A5C0A4CFC79A8FE99FE0019779
S11300C0F1F700C00000C7988FE99FE00197F1F7AE
S11300D000C000000895C59A85BBEEDF8FE39FE161
S11300E00197F1F700C000000895C59885BBE4DFCF
S11300F08FE39FE10197F1F700C00000089581E0CC
S1130100F4DF8FE39FE10197F1F700C00000089549
S11301102FEF80E792E0215080409040E1F700C04B
S113012000008FEF84BB15BA87B3806E87BBC69877
S113013088E3DBDF88E8D9DFE2DF86E0D6CF089505
S11301400F931F93CF93FC018081882351F08F017B
S1130150C0E0C1DFCF5FF801EC0FF11D8081811198
S1130160F8CFCF911F910F910895D2DF80E091E0F5
S1130170E7DF2FEF83ED90E3215080409040E1F7DB
S113018000C00000BCDF80E8B0DF81E3A4DF85E8C5
S1130190ACDF82E3A0DF80ECA8DF83E39CDF85ECA7
S11301A0A4DF84E398DF2FEF83ED90E321508040B8
S11301B09040E1F700C000008CE197DF2FEF83ED62
S11301C090E3215080409040E1F700C000008CE1B2
S11301D08CDF2FEF83ED90E3215080409040E1F7D6
S11301E000C000008CE181DF2FEF83ED90E321500C
S11301F080409040E1F700C000008CE176DFFFCF43
S1070200F894FFCF9C
S111020448454C4C4F20574F524C44210000AB
S9030000FC
