S01A000032303138303932385F7072616374696365332E737265638F
S113000047C000006CC000006AC0000068C0000067
S113001066C0000064C0000062C0000060C0000050
S11300205EC000005CC000005AC0000058C0000060
S113003056C0000054C0000052C0000050C0000070
S11300404EC000004CC0000033C1000048C0000096
S113005046C0000044C0000042C0000040C0000090
S11300603EC000003CC000003AC0000038C00000A0
S113007036C0000034C0000032C0000030C00000B0
S11300802EC000002CC000002AC000009A00A4006A
S113009011241FBECFEFD0E1DEBFCDBF11E0A0E041
S11300A0B1E0EEEBF7E000E00BBF02C007900D9269
S11300B0AE3DB107D9F721E0AEEDB1E001C01D922C
S11300C0A73FB207E1F710E0C7E4D0E003C02197EF
S11300D0FE0160D3C634D107D1F702D064C390CFF8
S11300E078948EED91E050D1D82F8EED91E08CD1A3
S11300F0C82F60E071E080EE91E070D06D2F80EE4B
S113010091E080D066E071E080EE91E067D06BE032
S113011071E080EE91E062D06C2F80EE91E072D0BD
S11301202FEF89E698E1215080409040E1F700C02C
S11301300000D7CF80EE91E049D08FED91E00ED052
S11301408EED91E000C108958EED91E008D18FED20
S113015091E033D080EE91E031C0089587B380669A
S113016087BB82B1886182B98FB581608FBD8EB53E
S113017088608EBD8FB5806A8FBD8EB583608EBD5D
S1130180ABE8B0E08C9181608C93EAE8F0E0808188
S1130190886080838C91806A8C9380818360808363
S11301A01BBC1ABC19BC18BC1092870010928600A4
S11301B010928500109284000895089508958AB1DC
S11301C088698AB91092900069B9089567E670E069
S11301D0F6CF08955D9BFECF6CB908950F931F93DE
S11301E0CF93DF93EB016881662339F08C0121966C
S11301F0C801F0DF69916111FBCFDF91CF911F91AD
S11302000F910895EF92FF920F931F93CF93DF9373
S113021000D000D01F92CDB7DEB7162FCE010196C5
S1130220D5DF80E390E09B838A831D821C821123A7
S113023011F1FE013296E12CF12C3DEC01C07C0160
S1130240139F812D1124869586958695282F220F3C
S1130250922F990F990F920F191B105D1193182F5C
S1130260C70101961111EBCFFE01E80FF91F1282AD
S1130270FF201CF411C0E12CF12C8E010E0D1F1D6A
S11302800D5F1F4FF80162918F01CE010196A2DF2D
S1130290F1E0EF1AF108B2F70F900F900F900F9062
S11302A00F90DF91CF911F910F91FF90EF900895E0
S11302B01F920F920FB60F9211240BB60F922F9329
S11302C03F938F939F93EF93FF93CF93DF931F926B
S11302D0CDB7DEB78091E2012091E10190E0019673
S11302E030E08217930779F08091E201833171F451
S11302F08091E101882339F009C08091E2018F5F88
S11303008093E20110C08CB189830DC0E091E201B9
S1130310F0E08CB1ED51FE4F80838091E201833196
S113032061F780E0EDCF0F90DF91CF91FF91EF91D6
S11303309F918F913F912F910F900BBE0F900FBE05
S11303400F901F90189583B7876083BFE4E6F0E0B1
S113035080818A60808380818B7F80830895089563
S1130360E5E6F0E080818D7F808385E08A95F1F772
S1130370000080818A60808385E38A95F1F700001C
S113038080818D7F80830895CF93DF931F92CDB7B3
S1130390DEB7CE010196D7DFCE010196E1DF12BEB2
S11303A08091630082FD06C0E3E6F0E082B78081BD
S11303B082FFFCCF12BE8091630082FF06C0E3E699
S11303C0F0E082B7808182FDFCCF62B770E080E00C
S11303D090E0F1D020E034E244E759E478D120E021
S11303E030E040E854E473D120E034E244E75BE4D5
S11303F04CD020E030E048E652E447D0AED0862F1F
S11304000F90DF91CF910895CF93DF931F92CDB7D3
S1130410DEB7CE01019697DFCE010196A1DF12BEB1
S11304208091630084FD06C0E3E6F0E082B780813A
S113043084FFFCCF1DBC1CBC8091630084FF06C0FC
S1130440E3E6F0E082B7808184FDFCCF62B770E020
S113045080E090E0B0D020E034E244E759E437D1C2
S113046020E030E040E854E432D120E034E244E7D4
S11304705BE40BD020E030E048E652E406D06DD0D7
S1130480862F0F90DF91CF9108950CD0E6C0DED077
S113049040F0D5D030F021F45F3F19F0C7C05111BE
S11304A010C1CAC0EBD098F39923C9F35523B1F313
S11304B0951B550BBB27AA2762177307840738F0CF
S11304C09F5F5F4F220F331F441FAA1FA9F333D02E
S11304D00E2E3AF0E0E830D091505040E695001CE2
S11304E0CAF729D0FE2F27D0660F771F881FBB1F9E
S11304F0261737074807AB07B0E809F0BB0B802D78
S1130500BF01FF2793585F4F2AF09E3F510568F0C3
S11305108DC0D7C05F3FECF3983EDCF386957795AA
S11305206795B795F7959F5FC9F7880F911D9695C5
S1130530879597F90895E1E0660F771F881FBB1F21
S1130540621773078407BA0720F0621B730B840BCE
S1130550BA0BEE1F88F7E095089598D088F09F575E
S113056090F0B92F9927B751A0F0D1F0660F771FFB
S1130570881F991F1AF0BA95C9F712C0B13081F0DB
S11305809FD0B1E008959CC0672F782F8827B85F6B
S113059039F0B93FCCF3869577956795B395D9F73C
S11305A03EF490958095709561957F4F8F4F9F4F46
S11305B00895E89409C097FB3EF490958095709552
S11305C061957F4F8F4F9F4F9923A9F0F92F96E99B
S11305D0BB279395F695879577956795B795F11110
S11305E0F8CFFAF4BB0F11F460FF1BC06F5F7F4FAD
S11305F08F4F9F4F16C0882311F096E911C07723BF
S113060021F09EE8872F762F05C0662371F096E8C7
S1130610862F70E060E02AF09A95660F771F881F96
S1130620DAF7880F9695879597F9089597F99F6754
S113063080E870E060E008959FEF80EC0895002466
S11306400A941616170618060906089500240A9433
S113065012161306140605060895092E0394000CB9
S113066011F4882352F0BB0F40F4BF2B11F460FF48
S113067004C06F5F7F4F8F4F9F4F089557FD905871
S1130680440F551F59F05F3F71F04795880F97FB52
S1130690991F61F09F3F79F087950895121613060C
S11306A01406551FF2CF4695F1DF08C0161617063B
S11306B01806991FF1CF8695710561050894089570
S11306C0E894BB2766277727CB0197F908950BD0C9
S11306D0C4CFB5DF28F0BADF18F0952309F0A6CF10
S11306E0ABCF1124EECFCADFA0F3959FD1F3950FC2
S11306F050E0551F629FF001729FBB27F00DB11DA2
S1130700639FAA27F00DB11DAA1F649F6627B00D31
S1130710A11D661F829F2227B00DA11D621F739F1A
S1130720B00DA11D621F839FA00D611D221F749F28
S11307303327A00D611D231F849F600D211D822F6F
S1130740762F6A2F11249F5750408AF0E1F08823B6
S11307504AF0EE0FFF1FBB1F661F771F881F9150C3
S11307605040A9F79E3F510570F060CFAACF5F3F7C
S1130770ECF3983EDCF3869577956795B795F795F6
S1130780E7959F5FC1F7FE2B880F911D969587957E
S113079097F90895EE0FFF1F0024001C0BBE07906D
S11307A0F691E02D099410E0C7E4D0E003C0FE0107
S11107B0F1DF2196C834D107D1F7F894FFCFBA
S11307BE6431203D200020202F20006432203D2073
S11307CE00312E2053746F700D0A00322E20476FA5
S11307DE20466F72776172640D0A00332E20476FC4
S11307EE204261636B776172640D0A00342E2052CD
S11307FE696768740D0A00352E204C6566740D0AFF
S113080E003E200053656C656374656420312E20B0
S113081E53544154455F49444C450D0A0053656C8D
S113082E656374656420322E2053544154455F47EA
S113083E4F5F464F52574152440D0A0053656C6543
S113084E6374656420332E2053544154455F474FDF
S113085E5F4241434B574152440D0A0053656C6548
S113086E6374656420342E205455524E5F524947AA
S113087E48540D0A0053656C656374656420352E07
S111088E205455524E204C4546540D0A00008D
S9030000FC
