S01B000032303138303931345F3458377365676D656E742E737265635B
S113000045C0000060C000005EC000005CC000008D
S11300105AC0000058C0000056C0000054C0000080
S113002052C0000050C000004EC000004CC0000090
S11300304AC0000048C0000046C0000044C00000A0
S113004080C0000040C000003EC000003CC0000072
S11300503AC0000038C0000036C0000034C00000C0
S113006032C0000030C000002EC000002CC00000D0
S11300702AC0000028C0000026C0000024C00000E0
S113008022C0000020C000001EC0000011241FBEBA
S1130090CFEFD0E1DEBFCDBF11E0A0E0B1E0E8E4F6
S11300A0F3E000E00BBF02C007900D92AA30B10745
S11300B0D9F721E0AAE0B1E001C01D92AD30B2074A
S11300C0E1F712D13FC19CCF8FEF84BB87B3806F20
S11300D087BB0895CF93DF93CDB7DEB72E970FB6C6
S11300E0F894DEBF0FBECDBF9AE0E0E0F1E0DE01A0
S11300F0119601900D929A95E1F790E89B8790E410
S11301009C8790E29D8790E19E8798B3906F98BBFF
S113011098B3FE01E80FF11D83858095982398BB61
S1130120E1E0F0E0EC0FFD1FE60FF11D808185BBDF
S11301302E960FB6F894DEBF0FBECDBFDF91CF91E0
S113014008951F920F920FB60F9211240BB60F92BF
S11301502F933F934F935F936F937F938F939F93CB
S1130160AF93BF93EF93FF9380910C018370F9F4E5
S113017040910A0150910B019A01ADECBCECD3D033
S11301809695879596958795969587959C01220FC8
S1130190331F880F991F880F991F880F991F820F8B
S11301A0931FBA01681B790B80E094DF78C08091BB
S11301B00C018370813029F540910A0150910B01A3
S11301C09A013695279536952795ABE7B4E1ABD0E0
S11301D09695879564E6689F9001699F300D112478
S11301E0CA01821B930B9C01ADECBCEC9CD0969590
S11301F087959695879596958795682F81E06ADF10
S11302004EC080910C018370823071F540910A01D7
S113021050910B019A013695279536952795369579
S11302202795A5ECB0E27FD0929582958F708927AF
S11302309F70892768EE73E0869F9001879F300D39
S1130240969F300D1124CA01821B930B9C01369595
S1130250279536952795ABE7B4E165D096958795B4
S1130260682F82E037DF1BC080910C0183708330DC
S1130270B1F420910A0130910B01369527953695FA
S1130280279536952795A5ECB0E24DD092958295A9
S11302908F7089279F708927682F83E01BDF8091E7
S11302A00C018F5F80930C0180910C01883C10F04D
S11302B010920C01FF91EF91BF91AF919F918F919B
S11302C07F916F915F914F913F912F910F900BBE52
S11302D00F900FBE0F901F90189583B7846083BF53
S11302E087B7816087BF0895EFDEF7DF78942FEF3B
S11302F081EE94E0215080409040E1F700C000007E
S11303002FEF81EE94E0215080409040E1F700C04F
S1130310000080910A0190910B01019690930B01CA
S113032080930A01E4CFA29FB001B39FC001A39FB1
S1130330700D811D1124911DB29F700D811D11241A
S10B0340911D0895F894FFCF0C
S10D03483F065B4F666D7D277F675B
S9030000FC
