S021000032303138303932305F70726163746963655F76656869636C652E7372656384
S113000045C0000060C000005EC000005CC000008D
S11300105AC0000058C0000056C0000054C0000080
S113002052C0000050C000004EC000004CC0000090
S11300304AC0000048C0000046C0000044C00000A0
S113004042C0000040C000003EC000003CC00000B0
S11300503AC0000038C0000036C0000034C00000C0
S113006032C0000030C000002EC000002CC00000D0
S11300702AC0000028C0000026C0000024C00000E0
S113008022C0000020C000001EC0000011241FBEBA
S1130090CFEFD0E1DEBFCDBF11E0A0E0B1E0E4E0FE
S11300A0F3E000E00BBF02C007900D92A83EB10739
S11300B0D9F721E0A8EEB1E001C01D92AE3EB2072F
S11300C0E1F718D01DC19CCF84EB91E006D18CE1FF
S11300D091E003D186E291E000D186E391E0FDD086
S11300E087E491E0FAD082E591E0F7D08CE591E0E5
S11300F0F4C00895E8EEF1E08EE091E0938382830A
S113010080E091E091838083D3D062D068D0DCDF3B
S1130110C1E00F2EF3E0AF2EF02D6894BB24B2F8AB
S11301200F2EF5E0CF2EF02DDD24D394D2E00F2E48
S1130130F6E8EF2EF12CF02D04E810E0DCD0882353
S113014039F1C7D08333A9F028F4813341F08233E5
S113015059F01DC0843391F08533A9F018C08FE5A0
S113016091E0BBD0CD2D13C088E791E0B6D0CD2F60
S11301700EC087E991E0B1D0CA2D09C087EB91E0A8
S1130180ACD0CB2D04C080ED91E0A7D0CC2D9CDF6A
S1130190C330C1F028F4C13041F0C23089F0CECF71
S11301A0C43091F0C53091F0C9CF1BBC1ABC19BC46
S11301B018BCF70111821082F80111821082BECF9F
S11301C037D0BCCF44D0BACF51D0B8CF60D0B6CF9F
S11301D087B3806687BB82B1886182B908958FB581
S11301E081608FBD8EB588608EBD8FB5806A8FBDEE
S11301F08EB583608EBDABE8B0E08C9181608C934A
S1130200EAE8F0E08081886080838C91806A8C9336
S11302108081836080831BBC1ABC19BC18BC1092FB
S11302208700109286001092850010928400089531
S113023088EC90E09BBD8ABD19BC18BC90938700E4
S113024080938600109285001092840008951BBC50
S11302501ABC88EC90E099BD88BD1092870010927A
S113026086009093850080938400089588EC90E044
S11302709BBD8ABD19BC18BC88E290E090938700AE
S1130280809386001092850010928400089588E27D
S113029090E09BBD8ABD19BC18BC88EC90E090939B
S11302A08700809386001092850010928400089540
S11302B0109290008FEC89B9599AE5E9F0E08081B9
S11302C086608083549A539A08955D9BFECF8CB9BF
S11302D008955F9BFECF8CB10895CF93DF93EC011B
S11302E08881882329F02196F0DF89918111FCCF40
S11302F0DF91CF9108958BB1881F8827881F0895B7
S1070300F894FFCF9B
S1130304000000010000000000006901000000007A
S1130314000200000000650100000000312E20539B
S1130324746F700D0A00322E20476F20466F727767
S11303346172640D0A00332E20476F204261636B9F
S1130344776172640D0A00342E2052696768740D53
S11303540A00352E204C6566740D0A003E200053B5
S1130364656C656374656420312E2053544154458F
S11303745F53544F500D0A0053656C656374656490
S113038420322E2053544154455F474F5F464F5209
S1130394574152440D0A0053656C656374656420C7
S11303A4332E2053544154455F474F5F4241434BDE
S11303B4574152440D0A0053656C656374656420A7
S11303C4342E205455524E5F52494748540D0A0066
S11303D453656C656374656420352E205455524E00
S10B03E4204C4546540D0A00AB
S9030000FC
