S01B000032303138303832315F70726163746963655F312E7372656339
S113000045C0000060C000005EC000005CC000008D
S11300105AC0000058C0000056C0000054C0000080
S113002052C0000050C000004EC000004CC0000090
S11300304AC0000048C0000046C0000045C000009F
S113004042C0000040C000003EC000003CC00000B0
S11300503AC0000038C0000036C0000034C00000C0
S113006032C0000030C0000046C000002CC00000B8
S11300702AC0000028C0000026C0000024C00000E0
S113008022C0000020C000001EC0000011241FBEBA
S1130090CFEFD0E1DEBFCDBF11E0A0E0B1E0E0E3FF
S11300A0F2E000E00BBF02C007900D92A430B1074C
S11300B0D9F721E0A4E0B1E001C01D92A930B20754
S11300C0E1F7B0D0B3C09CCF1F920F920FB60F923E
S11300D011248F939F9380910701909108010196B9
S11300E090930801809307019F918F910F900FBE09
S11300F00F901F9018951F920F920FB60F92112414
S11301000F900FBE0F901F9018958FEF87BB81BB88
S113011012BAE1E6F0E0908110828093620082B925
S1130120089583B78C6683BFEBE8F0E08081836831
S11301308083EAE8F0E080818A6180838DE781BF73
S113014080E090E7909387008093860078940895E8
S113015080B18170809306018FE39CE90197F1F7E8
S113016000C000009091060180910201981739F0B7
S11301709093020181E0992319F080E0089580E0D2
S1130180089580B186958170809305018FE39CE981
S11301900197F1F700C000009091050180910101E1
S11301A0981739F09093010181E0992319F080E0C8
S11301B0089580E0089580B182FB882780F98093B8
S11301C004018FE39CE90197F1F700C000009091CE
S11301D0040180910001981739F09093000181E0A7
S11301E0992319F080E0089580E00895B1DF882311
S11301F029F011BE1092870010928600C2DF882376
S113020039F011BE80E090E79093870080938600D8
S1130210D2DF882331F08DE781BF109287001092DE
S11302208600089572DF7DDFE1DFFECFF894FFCF13
S107023001010100C3
S9030000FC
