:1000000045C0000058C0000056C0000054C00000A9
:1000100052C0000050C000004EC000004CC00000A4
:100020004AC0000048C0000046C0000044C00000B4
:1000300042C0000040C000003EC000003CC00000C4
:100040003AC0000038C0000036C0000034C00000D4
:1000500032C0000030C000002EC000002CC00000E4
:100060002AC0000028C0000026C0000024C00000F4
:1000700022C0000020C000001EC000001CC0000004
:100080001AC0000018C0000016C0000011241FBED6
:10009000CFEFD0E1DEBFCDBF11E0A0E0B1E0E0EAFC
:1000A000F3E000E00BBF02C007900D92AE37B1073E
:1000B000D9F71AD173C1A4CF80937000089584EA50
:1000C00080937400E4E7F0E080818823ECF70895E2
:1000D0008093730084E880937400E4E7F0E080810B
:1000E0008823ECF70895CF93DF93D82FC62FE7DF4F
:1000F0008D2FEEDF8C2FECDF84E980937400DF918D
:10010000CF910895EF92FF920F931F93CF93DF93B8
:1001100000D000D0CDB7DEB7282F207F30E1839FFD
:10012000C0011124922F9D60998329602A83982F02
:100130009D609B8389608C838E010F5F1F4F7E01C2
:1001400085E0E80EF11CF80161918F018EE4CBDFB0
:100150000E151F05C1F70F900F900F900F90DF91B4
:10016000CF911F910F91FF90EF900895EF92FF9222
:100170000F931F93CF93DF9300D000D0CDB7DEB79E
:10018000282F207F30E1839FC0011124922F9C6093
:10019000998328602A83982F9C609B8388608C8336
:1001A0008E010F5F1F4F7E0185E0E80EF11CF80104
:1001B00061918F018EE497DF0E151F05C1F70F9037
:1001C0000F900F900F90DF91CF911F910F91FF90A3
:1001D000EF90089580E197E26FDF2FEF80E792E0E4
:1001E000215080409040E1F700C0000083E3BEDF73
:1001F00082E3BCDF88E2BADF8CE0B8DF86E0B6DFFE
:1002000081E0B4DF8FE39CE90197F1F700C00000C3
:1002100008950F931F93CF93FC018081882351F0A1
:100220008F01C0E06FDFCF5FF801EC0FF11D80811F
:100230008111F8CFCF911F910F91089581706F7048
:1002400090E4899F600D1124862F80588FCF0895E8
:10025000CF93DF93EA01F2DFCE01DBDFDF91CF91B5
:1002600008958FEF84BB08958FEF85BB40E051E088
:1002700060E070E080E090E0EBCF089515BA4EE0CA
:1002800051E060E070E080E090E0E2CF089515BAC0
:100290002FEF81EE94E0215080409040E1F700C0C4
:1002A00000008FEF85BB2FEF81EE94E0215080405E
:1002B0009040E1F700C000004CE151E060E070E0E8
:1002C00080E090E0C5CF08958DE491E054D083E4C0
:1002D00091E051D089E591E04ED08EE691E04BD08F
:1002E0008AE291E048C0089575DF30D0BADF4DE270
:1002F00051E060E080E0ACDFE7DFC1E002E013E066
:10030000D1E047D08823B1F032D0823349F0833333
:1003100061F0813371F48AE391E02DD0CD2F09C0D3
:1003200080E591E028D0C02F04C085E691E023D07D
:10033000C12FCADFC23031F0C33031F0C13009F70C
:1003400093DFDFCF9BDFDDCFA2DFDBCF109290000A
:100350008FEC89B9599AE5E9F0E080818660808365
:10036000549A539A08955D9BFECF8CB908955F9B74
:10037000FECF8CB10895CF93DF93EC018881882361
:1003800029F02196F0DF89918111FCCFDF91CF9187
:1003900008958BB1881F8827881F0895F894FFCF90
:1003A0004C4544204F4646202020202020004C452C
:1003B00044204F4E20202020202020004C45442067
:1003C000424C494E4B20202020003E200068656CA6
:1003D0006C6F20776F726C64210053656C65637479
:1003E000656420312E204C4544204F46460D0A00BE
:1003F00053656C656374656420322E204C4544203F
:100400004F4E0D0A0053656C656374656420332E8E
:0E041000204C454420424C494E4B0D0A000042
:00000001FF
