:100000004DC0000068C0000066C0000064C0000071
:1000100062C0000060C000005EC000005CC0000064
:100020005AC0000058C0000056C0000054C0000074
:1000300052C0000050C000004EC000004CC0000084
:100040004BC0000048C0000046C0000044C0000093
:1000500042C0000040C000003EC000003CC00000A4
:100060003AC0000038C0000036C0000034C00000B4
:1000700032C0000030C000002EC000002CC00000C4
:100080002AC0000028C0000026C00000FA000901B4
:1000900018012801380148015801680111241FBEC8
:1000A000CFEFD0E1DEBFCDBF11E0A0E0B1E0E6EDE3
:1000B000F8E000E00BBF02C007900D92AA3EB10726
:1000C000D9F721E0AAEEB1E001C01D92A73FB20727
:1000D000E1F732D0FEC394CF1F920F920FB60F926A
:1000E00011248F939F938091EF019091F0010196DD
:1000F0009093F0018093EF018091EF019091F001D6
:100100000A9749F41092F0011092EF018091EE01EC
:100110008F5F8093EE0186E082BF9F918F910F9059
:100120000FBE0F901F90189583B7846083BF87B769
:10013000816087BF78940895E1EFF1E080E091E07D
:10014000918380838EE091E093838283D1D0ECDF32
:100150008FEF81BB12BACCE1D1E06894EE24E3F8D2
:100160000F2EF7E07F2EF02D6894882486F80F2E4E
:10017000F6E09F2EF02D6894AA24A5F80F2EF5E046
:10018000BF2EF02D6894CC24C4F86894FF24F2F8B4
:100190000F2EF3E0DF2EF02D02E011E08091EE0152
:1001A0008536C8F08091EB018F5F8093EB019091D1
:1001B000EA019F5F9093EA011F929F931F928F9392
:1001C000DF93CF93C6D01092EE010F900F900F9057
:1001D0000F900F900F90AFD0882301F39AD08093A7
:1001E000ED0190E0FC01F197E830F105B8F6EA5B2B
:1001F000FF4FA6C01093EC0182B3812782BB909B76
:1002000004C082E391E089D0C9CF8DE391E085D02D
:10021000C5CF0093EC0182B3802782BB919B04C0C1
:1002200089E491E07AD0BACF84E591E076D0B6CF78
:10023000D092EC0182B38F2582BB82B3843021F44B
:1002400080E691E06AD0AACF8BE691E066D0A6CF97
:10025000F092EC0182B38E2582BB82B3883021F408
:1002600087E791E05AD09ACF82E891E056D096CFB6
:10027000B092EC0182B38C2582BB82B3803121F431
:100280008EE891E04AD08ACF89E991E046D086CFC6
:100290009092EC0182B38A2582BB82B3803221F432
:1002A00085EA91E03AD07ACF80EB91E036D076CFF4
:1002B0007092EC0182B3882582BB82B3803421F432
:1002C0008CEB91E02AD06ACF87EC91E026D066CF04
:1002D000E092EC0182B3805882BB82B3803821F473
:1002E00083ED91E01AD05ACF8EED91E016D056CF23
:1002F000109290008FEC89B9599AE5E9F0E080817D
:1003000086608083549A539A08955D9BFECF8CB982
:1003100008955F9BFECF8CB10895CF93DF93EC01DE
:100320008881882329F02196F0DF89918111FCCF03
:10033000DF91CF9108958BB1881F8827881F08957A
:10034000EE0FFF1F0024001C0BBE0790F691E02D5E
:100350000994CF93DF93CDB7DEB7AE014B5F5F4F0C
:10036000FA0161917191AF018091F3019091F401D3
:1003700003D0DF91CF9108952F923F924F925F92D9
:100380006F927F928F929F92AF92BF92CF92DF92A5
:10039000EF92FF920F931F93CF93DF93CDB7DEB70A
:1003A0002B970FB6F894DEBF0FBECDBF6C017B015B
:1003B0008A01FC0117821682838181FFBFC1CE01B1
:1003C00001963C01F6019381F70193FD859193FF1E
:1003D00081917F01882309F4ADC1853239F493FD01
:1003E000859193FF81917F01853221F4B60190E0E0
:1003F000D6D1E8CF912C212C312CFFE1F315D8F088
:100400008B3279F038F4803279F08332A1F4232DE5
:1004100020611DC08D3261F0803369F4232D21608D
:1004200016C0832D8260382EE32DE4603E2E2AC054
:10043000F32DF8601DC037FC2DC020ED280F2A30A9
:1004400040F08E32B9F436FC75C1232D2064322E73
:1004500019C036FE06C08AE0989E200D1124922E07
:1004600011C0EAE02E9E200D1124222EF32DF06201
:100470003F2E08C08C3621F4832D8068382E02C0B0
:10048000883641F4F70193FD859193FF81917F01B7
:100490008111B3CF982F9F7D9554933028F40C5F32
:1004A0001F4F9FE399830DC0833631F0833771F07E
:1004B000833509F055C020C0F801808189830E5F23
:1004C0001F4F88248394912C530112C02801F2E01D
:1004D0004F0E511CF801A080B18036FE03C0692D7B
:1004E00070E002C06FEF7FEFC5014ED14C01820179
:1004F000F32DFF773F2E15C0280122E0420E511C3C
:10050000F801A080B18036FE03C0692D70E002C002
:100510006FEF7FEFC5012DD14C01F32DF0683F2E19
:10052000820133FC19C0822D90E088169906A0F450
:10053000B60180E290E033D12A94F5CFF50137FC83
:10054000859137FE81915F01B60190E028D121109D
:100550002A9421E0821A91088114910479F7E1C06C
:10056000843611F0893639F5F80137FE07C060810D
:100570007181828193810C5F1F4F08C060817181FE
:10058000072E000C880B990B0E5F1F4FF32DFF7683
:100590003F2E97FF09C090958095709561957F4F8C
:1005A0008F4F9F4FF0683F2E2AE030E0A30133D1F8
:1005B000882E861844C0853731F4232D2F7EB22E25
:1005C0002AE030E025C0932D997FB92E8F36C1F0F7
:1005D00018F4883579F0AEC0803719F0883721F0EB
:1005E000A9C0E92FE061BE2EB4FE0DC0FB2DF46062
:1005F000BF2E09C034FE0AC0292F2660B22E06C0C5
:1006000028E030E005C020E130E002C020E132E027
:10061000F801B7FE07C060817181828193810C5F10
:100620001F4F06C06081718180E090E00E5F1F4F18
:10063000A301F1D0882E8618FB2DFF773F2E36FEC2
:100640000DC0232D2E7FA22E891458F434FE0BC02A
:1006500032FC09C0832D8E7EA82E05C0B82CA32C99
:1006600003C0B82C01C0B92CA4FE0FC0FE01E80DD8
:10067000F11D8081803321F49A2D997EA92E09C025
:10068000A2FE06C0B394B39404C08A2D867809F004
:10069000B394A3FC10C0A0FE06C0B21480F4280CD2
:1006A000922C9B180DC0B21458F4B60180E290E071
:1006B00076D0B394F8CFB21418F42B1802C0982C4B
:1006C000212CA4FE0FC0B60180E390E068D0A2FE0A
:1006D00016C0A1FC03C088E790E002C088E590E066
:1006E000B6010CC08A2D867851F0A1FE02C08BE2C3
:1006F00001C080E2A7FC8DE2B60190E050D08914E1
:1007000030F4B60180E390E04AD09A94F8CF8A940E
:10071000F301E80DF11D8081B60190E040D0811019
:10072000F6CF222009F44ECEB60180E290E037D019
:100730002A94F7CFF6018681978102C08FEF9FEF51
:100740002B960FB6F894DEBF0FBECDBFDF91CF91D1
:100750001F910F91FF90EF90DF90CF90BF90AF90DF
:100760009F908F907F906F905F904F903F902F90D1
:100770000895FC010590615070400110D8F78095F4
:1007800090958E0F9F1F0895FC016150704001905D
:100790000110D8F7809590958E0F9F1F08950F93A5
:1007A0001F93CF93DF93FB01238121FD03C08FEFC4
:1007B0009FEF2CC022FF16C04681578124813581CE
:1007C0004217530744F4A081B1819D012F5F3F4F31
:1007D000318320838C93268137812F5F3F4F37836E
:1007E000268314C08B01EC01FB010084F185E02D10
:1007F0000995892BE1F6D80116968D919C91179752
:10080000019617969C938E931697CE01DF91CF9108
:100810001F910F910895FA01AA27283051F1203134
:1008200081F1E8946F936E7F6E5F7F4F8F4F9F4F84
:10083000AF4FB1E03ED0B4E03CD0670F781F891FC6
:100840009A1FA11D680F791F8A1F911DA11D6A0F94
:10085000711D811D911DA11D20D009F468943F9147
:100860002AE0269F11243019305D3193DEF6CF0146
:100870000895462F4770405D4193B3E00FD0C9F70C
:10088000F6CF462F4F70405D4A3318F0495D31FD79
:100890004052419302D0A9F7EACFB4E0A6959795CC
:1008A000879577956795BA95C9F7009761057105A2
:1008B00008959B01AC010A2E0694579547953795EC
:1008C0002795BA95C9F7620F731F841F951FA01D46
:0608D0000895F894FFCF2B
:1008D6000000000100000000000089010000000087
:1008E60000020000000085010000000074656D70C4
:1008F6002C2025642C2068756D69642C2025640DD8
:100906000A004C45442C312C4F4E0D0A004C4544F0
:100916002C312C4F46460D0A004C45442C322C4FA8
:100926004E0D0A004C45442C322C4F46460D0A000B
:100936004C45442C332C4F4E0D0A004C45442C3369
:100946002C4F46460D0A004C45442C342C4F4E0D78
:100956000A004C45442C342C4F46460D0A004C45A3
:10096600442C352C4F4E0D0A004C45442C352C4F4B
:1009760046460D0A004C45442C362C4F4E0D0A00B7
:100986004C45442C362C4F46460D0A004C45442C0B
:10099600372C4F4E0D0A004C45442C372C4F4646FB
:1009A6000D0A004C45442C382C4F4E0D0A004C4580
:0A09B600442C382C4F46460D0A0071
:00000001FF
